:1000000012C018951895189520C41895189518952C
:100010001895A7C4189518951895189518951895BA
:100020001895189518958FE58DBFCCE9ECE24E2E0A
:1000300084E08EBFD3E0F2E05F2EA89584B7082E4F
:10004000877F84BF88E1992781BD91BDEEEFF3E002
:10005000A0E6B0E088278D933197E9F70E94C306A8
:10006000662483E08093830081E090E0A9E8B0E01B
:100070008D939C9381E090E0ABE8B0E08D939C93EE
:1000800000E41DE0A4EAB0E00D931C93CFD0EAD0C9
:1000900084B5A8E7B0E08D9388278C9380E090E04A
:1000A000A7E9B0E08D939C9380E08093990085E070
:1000B00080938F0083E08093840082E080938700A8
:1000C0008AE090E08A939A9365D6A5E8B0E00C9315
:1000D000A5E8B0E08C918F5F8C9382E080937C00E8
:1000E0008EE090E0ACE7B0E0AD90BB24AEE5B0E0D0
:1000F000AA0CBB1CAA0DBB1D8D939C93ACE7B0E072
:100100008C918F5F8C9300917C000C3009F0E8CFCC
:1001100075E073BF84E190E096D673D100918400BE
:10012000003009F001C001C0F5CF70E073BFA7E94E
:10013000B0E08D919C91D2018D939C9382E099D6F1
:100140003FD5229682E091D6E0E0F0E0ADE7B0E066
:10015000DDD6ADE7B0E04D915C91A7E9B0E00D913F
:100160001C910417150714F009F001C006C0E0E067
:10017000F0E0A7E9B0E07BE7B8D688E893E163D682
:10018000A3E8B0E08C9181508C9300918300003003
:1001900009F003C083E08093830079CFAA81BB81FB
:1001A0000C910D3008F01DC00AE0A881B9814C9176
:1001B000041BAFE7B0E00C93689480917F00AA81A4
:1001C000BB81AD90BB24AEE5B0E0AA0CBB1CAA0D70
:1001D000BB1D7DD672D60C9016F0092201C0082AEC
:1001E0000C920895AA81BB810C910D3008F01DC0BE
:1001F0000AE0A881B9814C91041BAFE7B0E00C93F1
:10020000E89480917F00AA81BB81AD90BB24AEE5CC
:10021000B0E0AA0CBB1CAA0DBB1D59D64ED60C9043
:1002200016F0092201C0082A0C9208958FE084BBC1
:100230008FEF87BB8FEF81BB83E085BD79B770649B
:1002400079BF789483E085BD86E886B980E087B978
:10025000379A85B78C7F85BF75E073BF79B77160BA
:1002600079BF089581E080937C0080E090E0ACE766
:10027000B0E0AD90BB24AEE5B0E0AA0CBB1CAA0D6B
:10028000BB1D8D939C93ACE7B0E08C918F5F8C93FA
:1002900000917C000D3009F0E8CF0895AA81BB8160
:1002A0008C9181508C93AC81BD818C9181508C93C9
:1002B0008FE190E0A8EAB0E08D939C93AA81BB8186
:1002C0009C91A8EAB0E0EED5A8EAB0E042E04CD5B7
:1002D00080E090E0A2EAB0E08D939C93A881B98180
:1002E0000D91112744E050E0CAD5A2EAB0E00D9389
:1002F0001C93A2EAB0E00D911C91A4EAB0E04D91EC
:100300005C91040F151FA2EAB0E00D931C9381E0ED
:1003100080937C0000917C00043010F009F070C0E4
:1003200000917C00AC81BD814C91040FAFE7B0E03F
:100330000C93AFE7B0E0AD90BB24AEE5B0E0AA0C03
:10034000BB1CAA0DBB1D8D919C91A6EAB0E08D93BC
:100350009C93A2EAB0E0ED91FC91C895802DAFE7A7
:10036000B0E0AD90BB24AEE5B0E0AA0CBB1CAA0D7A
:10037000BB1D8D9388278C93AA81BB819C91AFE78D
:10038000B0E0AD90BB24AEE5B0E0AA0CBB1CAA0D5A
:10039000BB1D88D5A6EAB0E00D911C91A8EAB0E09B
:1003A0004D915C9104231523A6EAB0E00D931C93B4
:1003B000AFE7B0E0AD90BB24AEE5B0E0AA0CBB1C4B
:1003C000AA0DBB1D0D911C91A6EAB0E04D915C9168
:1003D000042B152BAFE7B0E0AD90BB24AEE5B0E049
:1003E000AA0CBB1CAA0DBB1D0D931C93A2EAB0E086
:1003F000C3D4ACE7B0E08C918F5F8C9308F48ACFC4
:10040000089580E08093960081E080937C00ACE7C3
:10041000B0E0AD90BB24AFE5B0E0AA0CBB1CAA0DC8
:10042000BB1D0C9101FB0EF012C0689480917C0002
:10043000A4E9B0E04CD541D50C9016F0092201C0DA
:10044000082A0C92A6E9B0E08C918F5F8C93ACE700
:10045000B0E08C918F5F8C9300917C000D3009F09F
:10046000D6CF00919600033010F009F001C001C012
:1004700062D107B1007F076007B90BD5AEE9B0E0E4
:100480008D939C93AEE9B0E00D911C9141E750E053
:10049000B7D4AEE9B0E04D935C930AE040919E0082
:1004A000041BA1E8B0E00C9387E090E0A4E9B0E081
:1004B0008D939C9390918100A4E9B0E0F3D481E006
:1004C00080937C0080917C00A4E9B0E000D5F5D455
:1004D0000C900822689409F4E894ACE7B0E0AD9081
:1004E000BB24AFE5B0E0AA0CBB1CAA0DBB1D8C91D0
:1004F00081F98C93ACE7B0E08C918F5F8C93009185
:100500007C000D3009F0DECF0895A7E9B0E00D9131
:100510001C910F5F1F4FA7E9B0E00D931C93A7E953
:10052000B0E00D911C91023350E0150714F009F072
:1005300001C003C084E080938F00A7E9B0E00D9173
:100540001C91043650E0150714F009F001C003C0F7
:1005500083E080938F00A7E9B0E00D911C910639EC
:1005600050E0150714F009F001C003C082E0809349
:100570008F00A9E9B0E08C918F5F8C9309E04091E6
:100580008700041BA2E9B0E00C930BE040918700C8
:10059000041BA3E9B0E00C93ABE8B0E00D911C9113
:1005A000013050E0150709F02DC080919300A5E8B7
:1005B000B0E0AD90BB24AEE5B0E0AA0CBB1CAA0D28
:1005C000BB1D85D47AD40C900822689409F4E89471
:1005D0000EF00CC00FEF1FEFA9E8B0E04D915C9159
:1005E0004ED4A9E8B0E00D931C930BC00FEF1FEFA2
:1005F000ABE8B0E04D915C9142D4ABE8B0E00D9334
:100600001C932CC080919200A5E8B0E0AD90BB2473
:10061000AEE5B0E0AA0CBB1CAA0DBB1D58D44DD44E
:100620000C900822689409F4E8940EF00CC00FEFC7
:100630001FEFA9E8B0E04D915C9121D4A9E8B0E0AA
:100640000D931C930BC00FEF1FEFABE8B0E04D9183
:100650005C9115D4ABE8B0E00D931C930091990028
:10066000043110F009F001C065C00091870002302C
:1006700008F060C070E073BF82E090E0AAE7B0E0ED
:100680008D939C93AAE7B0E00D911C910B3050E044
:10069000150710F009F049C091E0AAE7B0E0AD906D
:1006A000BD90AEE5B0E0AA0CBB1CAA0DBB1DFAD3F1
:1006B000AAE7B0E0AD90BD90AEE5B0E0AA0CBB1CDF
:1006C000AA0DBB1D0D911C9146E050E0042B152B8B
:1006D000AAE7B0E0AD90BD90AEE5B0E0AA0CBB1CBF
:1006E000AA0DBB1D0D931C93AAE7B0E0AD90BD9081
:1006F000AEE5B0E0AA0CBB1CAA0DBB1D0D911C9170
:100700004FE750E004231523AAE7B0E0AD90BD9079
:10071000AEE5B0E0AA0CBB1CAA0DBB1D0D931C934B
:10072000AAE7B0E029D308F4ADCF80E08093990028
:1007300075E073BF089570E073BF71E072BFA4E805
:10074000B0E08C9181508C9381E090E0AAE7B0E01A
:100750008D939C93AAE7B0E00D911C91053050E079
:10076000150710F009F023C08FEF93E0A0E6B0E08A
:100770008D939C938FEF93E0A6E7B0E08D939C93CD
:1007800084E690E060D380E090E0A0E6B0E08D9356
:100790009C9380E090E0A6E7B0E08D939C9384E684
:1007A00090E051D3AAE7B0E0E7D208F4D3CF82E0DB
:1007B0008093870081E090E0ABE8B0E08D939C935C
:1007C00089E090E08A939A93E5D2A5E8B0E00C9393
:1007D000A5E8B0E08C918F5F8C9375E073BF0895AE
:1007E00070E073BF882785BD70E075BB70E072BB99
:1007F00070E078BB37988A98929A7BB770647BBF19
:1008000075B77F70706A75BF88957BB77F7B7BBF3C
:100810008A9A9298379A83E085BDE0E0F0E0ADE7F0
:10082000B0E074D3ADE7B0E08D919C91D2018D938F
:100830009C9382E01ED3C4D1229682E016D388E82E
:1008400093E101D375E073BF08950F921F922F9229
:100850003F924F925F927F92AF92BF920F931F93FE
:100860002F933F934F935F936F937F938F939F93B8
:10087000AF93BF93CF93DF93EF93FF938FB78F9394
:10088000ABEAB0E08C918F5F8C930091AB000D30A0
:1008900009F003C081E08093AB000091AB0040E021
:1008A000040FAAEAB0E00C9370E072BB70E078BB72
:1008B00070E075BB0091AB00013009F002C0C49834
:1008C00001C0C49AC39AC398C29AC298AAEAB0E077
:1008D000AD90BB24AEE5B0E0AA0CBB1CAA0DBB1DBD
:1008E0008C91ACEAB0E08C930091AC004FE0042313
:1008F000ADEAB0E00C93ACEAB0E08C91807F8C93D1
:10090000ACEAB0E08C9182BBADEAB0E08C9185BBE3
:10091000AAEAB0E0AD90BB24AEE5B0E0AA0CBB1CE7
:10092000AA0DBB1D11968C9188BB8F918FBFFF9133
:10093000EF91DF91CF91BF91AF919F918F917F9177
:100940006F915F914F913F912F911F910F91BF90A8
:10095000AF907F905F904F903F902F901F900F909F
:1009600018950F921F922F923F924F925F927F9213
:10097000AF92BF920F931F932F933F934F935F9329
:100980006F937F938F939F93AF93BF93CF93DF9397
:10099000EF93FF938FB78F93AEE8B0E08C918F5FAA
:1009A0008C9340918F0000918E00041710F009F095
:1009B00001C0EAC080E080938E00009185000C3079
:1009C00009F006C08FEF9FEFA9E8B0E08D939C93EC
:1009D00000918500013009F006C081E090E0A9E8AF
:1009E000B0E08D939C93A9E8B0E00D911C9101308B
:1009F00050E0150709F005C0A5E8B0E08C918F5FC5
:100A00008C93A9E8B0E00D911C910F3F5FEF1507A3
:100A100009F005C0A5E8B0E08C9181508C9300915D
:100A200087000A3009F006C08FEF9FEFABE8B0E017
:100A30008D939C93ABE8B0E00D911C91013050E098
:100A4000150709F005C0A7E8B0E08C918F5F8C9383
:100A5000ABE8B0E00D911C910F3F5FEF150709F077
:100A60000CC000918700013010F009F001C005C0F2
:100A7000A7E8B0E08C9181508C930AE04091870008
:100A8000041BADE8B0E00C9380918D00A5E8B0E0C8
:100A9000AD90BB24AEE5B0E0AA0CBB1CAA0DBB1DFB
:100AA00016D20BD20C900822689409F4E8940EF048
:100AB00001C02BDD00918700013009F02FC00091AB
:100AC000850041E0041BA0E9B0E00C930091850093
:100AD00041E0040FA1E9B0E00C93A0E9B0E0AD90D3
:100AE000BB24AFE5B0E0AA0CBB1CAA0DBB1D0C914A
:100AF00001FB0EF013C0A1E9B0E0AD90BB24AFE55F
:100B0000B0E0AA0CBB1CAA0DBB1D0C9101FB0EF0A2
:100B100005C0A7E8B0E08C918F5F8C934091850071
:100B200000918600041709F414C080918600D20158
:100B30008C9381E09ED180918800D2018C9381E0DA
:100B400098D150DB249682E090D1809185008093EB
:100B500086004091870000918800041709F404C0C2
:100B6000809187008093880080918500D2018C93CA
:100B700081E07FD180918700D2018C9381E079D18F
:100B80000DDB249682E071D18F918FBFFF91EF91A1
:100B9000DF91CF91BF91AF919F918F917F916F9195
:100BA0005F914F913F912F911F910F91BF90AF9007
:100BB0007F905F904F903F902F901F900F901895CF
:100BC000A881B9810D911C9148EE53E0F9D0ADE7B1
:100BD000B0E04D935C9380917D0080939A00ADE7E7
:100BE000B0E00D911C9148EE53E049D1ADE7B0E083
:100BF0000D931C93A881B9810D911C91ADE7B0E0D4
:100C00004D915C91041B150BA881B9810D931C9328
:100C1000A881B9810D911C9144E650E0D1D0ADE797
:100C2000B0E04D935C9380917D0080939B00009198
:100C30009B0044E6049FACE9B0E00C92A881B98126
:100C40000D911C91ACE9B0E04D915527041B150B9B
:100C5000A881B9810D931C93A881B9810C914AE0B8
:100C60005DD1ACE9B0E00C9300919C004AE0049F98
:100C7000ADE9B0E00C92A881B9810C9140919D0042
:100C8000041BADE9B0E00C93EDDA81E0D2018C9366
:100C900081E0EFD084E0D2018C9381E0EAD08091B2
:100CA0009B00D2018C9381E0E4D0F8DA269683E0B1
:100CB000DCD085E0D2018C9381E0DBD084E0D201EE
:100CC0008C9381E0D6D080919C00D2018C9381E0FE
:100CD000D0D0E4DA269683E0C8D089E0D2018C93A4
:100CE00081E0C7D084E0D2018C9381E0C2D08091B2
:100CF0009D00D2018C9381E0BCD0D0DA269683E0AF
:100D0000B4D000919A00003010F009F001C015C075
:100D100080919A00D2018C9381E0ABD08AE0D2011D
:100D20008C9381E0A6D03ADA249682E09ED0AAE99C
:100D3000B0E08C9181508C93E4CF0895F894FFCF6C
:100D40001F111F0000021F001D15170015151F00A1
:100D500007041F0017151D001F151D0001011F00AE
:100D60001F151F0017151F00EA2FFB2F8D9180956F
:100D700081934A95D9F70895ED91FC91EF5FFF4F6C
:100D8000FC93EE93089515E000E000937800109333
:100D90007900089540917800509179000DEF13E4A7
:100DA0006ED00D531146009378001093790059913D
:100DB000499126D0089508D062D000FC10D0089543
:100DC00003D01ED001F8F9CF0024E89457FF02C0E9
:100DD00009D0689400F80BD010F80124089502D0CF
:100DE00009D00895509540954F5F5F4F0895E8945E
:100DF00017FF0895009510950F5F1F4F6894089591
:100E0000352F242FE894452B11F468940895512F21
:100E1000402F0027112780E1440F551F001F111F8D
:100E2000021B130B416018F4020F131F4E7F8A95AB
:100E300099F708953197F1F70895689462F8089545
:100E4000E89462F80895EF93FF93EE27E82BE92BDF
:100E500031F0E0EDF7E03197F1F70197D1F7FF912D
:100E6000EF910895481A590A0895481A8827580A90
:100E7000089599275A924A92480E591E08950F9242
:100E8000B801469F8001479F100D569F100D0F908F
:100E90000895369A3699FECF369A3699FECF84B1A8
:100EA00095B10895903041F00D911C91000F111FE4
:100EB0009A95E1F71C930E93089591E0882321F011
:100EC0008894991F8A95E9F7892F9095089588301D
:100ED00018F011968850FBCF0895E199FECFEEBB34
:100EE000FFBB3196089591E001C092E07B3751F449
:100EF0007FB7F894F2DF8D918DBBE29AE19A9A95D3
:100F0000C9F77FBF7727089591E001C092E0E5DF40
:100F1000E09A8DB38D939A95D1F70895FF93881B2E
:100F2000F9E0001FFA9511F4FF910895881F841BC2
:0C0F300018F4840F8894F5CF0894F3CFD8
:00000001FF
