:1000000012C028C027C00CC12EC124C023C022C0EA
:1000100021C020C01FC01EC01DC01CC01BC01AC0F4
:1000200019C018C017C011241FBECFE5D4E0DEBF31
:10003000CDBF14BE88E10FB6F89481BD11BC0FBED0
:1000400010E0A0E6B0E001C01D92A13AB107E1F7CF
:1000500058D0BDC1D5CFE4E6F0E010821786168EE9
:1000600015A6319680E0E337F807B9F70895582FC1
:1000700029E0261B682F70E02830C8F481E090E06A
:1000800002C0880F991F2A95E2F7982F9095FB01DF
:10009000EC59FF4F30E02081341710F4282B01C0B9
:1000A000292320833F5F3F963430A9F7089530E03D
:1000B0002170307063707070660F771F260F371FC6
:1000C00081E090E002C0880F991F2A95E2F7982FEF
:1000D000382F309556955695E52FF0E0E059FF4FB3
:1000E000DF0120E0241720F48081892B808303C066
:1000F0008C9183238C932F5F3F961F96243091F72A
:100100000895CF93DF93F8948FEF87BB8FE084BB84
:1001100080EF81BB82E085BD85B5886485BD85B5EE
:1001200085BD84E683BD80EC88BF89B7806C89BFBC
:1001300086E886B97894109262001AC01092A000E6
:100140000EC08E2F63E010D1482F43704F5F8E2F6B
:10015000622F8DDF8091A0008F5F8093A00020919F
:10016000A000E09162002A3060F3EF5FE09362004C
:10017000809162008C3010F380E197E228EC30E04F
:10018000F9013197F1F70197D9F765DF1092630014
:10019000C8ECD0E01092620027C01092A0001BC0F3
:1001A0002E2F30E02F0F311D809163006CE0DCD0EA
:1001B000A901490F511DCA0163E070E0E1D0AB0114
:1001C000437050704F5F8E2F6F2F51DF8091A000D2
:1001D0008F5F8093A000F091A000E0916200FA3060
:1001E000F8F2EF5FE0936200809162008C30A8F239
:1001F00084EF91E0FE013197F1F70197D9F78091F3
:1002000063008F5F80936300C5CF8770806487B978
:10021000369A349BFECF349A24B135B1C901089582
:100220001F920F920FB60F9211242F938F939F93CB
:100230002091600088E190E002C0880F991F2A9504
:10024000E2F783BD88B38C7F88BB85B3807F85BB95
:1002500082B38F7082BB9F918F912F910F900FBEB1
:100260000F901F9018951F920F920FB60F921124A6
:100270002F933F934F935F936F937F938F939F93AE
:10028000AF93EF93FF9380916100882311F0C49A9C
:1002900001C0C498C39AC398C29AC29840916000A2
:1002A0007091610020916100809160006091610017
:1002B000A5B390E0FC0134E0EE0FFF1F3A95E1F7A3
:1002C000E81BF90BE60FF11DEC59FF4F9081892FC8
:1002D0008F708A2B85BB82B3907F982B92BB68B3BB
:1002E0007695769550E0FA01A4E0EE0FFF1FAA95EF
:1002F000E1F7E41BF50BEC59FF4FE70FF11D848587
:1003000090E030E023703070220F331F02C09595CB
:1003100087952A95E2F78370862B88BB80916100D0
:100320008F5F80936100809161008C3068F0109243
:100330006100809160008F5F809360008091600019
:10034000843011F410926000FF91EF91AF919F9172
:100350008F917F916F915F914F913F912F910F906E
:100360000FBE0F901F901895991B79E004C0991F3C
:10037000961708F0961B881F7A95C9F780950895FF
:1003800097FB092E07260AD077FD04D00CD006D0A3
:1003900000201AF4709561957F4F0895F6F79095B7
:1003A00081959F4F0895AA1BBB1B51E107C0AA1F4F
:1003B000BB1FA617B70710F0A61BB70B881F991F06
:1003C0005A95A9F780959095BC01CD010895F894B0
:0203D000FFCF5D
:00000001FF
