:1000000012C01895189518956AC2189518951895E4
:10001000189548C11895189518951895189518951C
:100020001895189518958FE58DBFC0E2E8EB4E2E18
:1000300084E08EBFD4E0F3E05F2EA89584B7082E4D
:10004000877F84BF88E1992781BD91BDEEEFF3E002
:10005000A0E6B0E088278D933197E9F7662488E021
:1000600082BD85E085BD79B7706479BFA9E9B0E04C
:10007000E8E3F6E016D2E3D188EE93E0A3E8B0E03F
:100080008D939C9300D186E690E0AAE6B0E08D9334
:100090009C93CED1E9E9F0E0AAE7B0E0B9D2D6D09E
:1000A000A3E8B0E08D919C91B4D1F3CFF894FFCF49
:1000B00080918600EAE7F0E001E00A93A8E8B0E06A
:1000C000ACD2A8E8B0E072D2A5E8B0E00C93009101
:1000D0008500003009F00EC080E090E0A7E8B0E0B5
:1000E000AD90BB24AEE5B0E0AA0CBB1CAA0DBB1DB5
:1000F0008D939C9300918500013009F00EC082E041
:1001000090E0A7E8B0E0AD90BB24AEE5B0E0AA0C6B
:10011000BB1CAA0DBB1D8D939C93009185000230E2
:1001200009F00EC086E090E0A7E8B0E0AD90BB24F7
:10013000AEE5B0E0AA0CBB1CAA0DBB1D8D939C9331
:1001400000918500033009F00EC08EE090E0A7E832
:10015000B0E0AD90BB24AEE5B0E0AA0CBB1CAA0D8C
:10016000BB1D8D939C9300918500043009F00EC057
:100170008EE190E0A7E8B0E0AD90BB24AEE5B0E042
:10018000AA0CBB1CAA0DBB1D8D939C9300918500EE
:10019000053009F00EC08EE390E0A7E8B0E0AD9026
:1001A000BB24AEE5B0E0AA0CBB1CAA0DBB1D8D9311
:1001B0009C9300918500063009F00EC08EE790E018
:1001C000A7E8B0E0AD90BB24AEE5B0E0AA0CBB1C44
:1001D000AA0DBB1D8D939C9300918500073009F0FB
:1001E0000EC08EEF90E0A7E8B0E0AD90BB24AEE586
:1001F000B0E0AA0CBB1CAA0DBB1D8D939C93009173
:100200008500083009F00EC08EEF91E0A7E8B0E05D
:10021000AD90BB24AEE5B0E0AA0CBB1CAA0DBB1D83
:100220008D939C9300918500093009F00EC08EEFEC
:1002300093E0A7E8B0E0AD90BB24AEE5B0E0AA0C37
:10024000BB1CAA0DBB1D8D939C93089581E08093E8
:10025000860082E0809387002BDF82E08093860017
:1002600083E08093870024DF84E08093860089E028
:10027000809387001DDF85E0809386008AE080936D
:10028000870016DF08958FE084BB8FEF87BB8FEF69
:1002900081BB82E083BF79B7716079BF789482E0D7
:1002A00083BF08950F921F922F923F924F925F92B9
:1002B0007F92AF92BF920F931F932F933F934F93D1
:1002C0005F936F937F938F939F93AF93BF93CF93DE
:1002D000DF93EF93FF938FB78F93A3EAB0E08C91F6
:1002E0008F5F8C930091A3000D3009F003C081E073
:1002F0008093A3000091A30040E0040FA2EAB0E0C5
:100300000C9370E072BB70E078BB70E075BB00913D
:10031000A300013009F002C0C49801C0C49AC39A76
:10032000C398C29AC298A2EAB0E0AD90BB24AEE5F1
:10033000B0E0AA0CBB1CAA0DBB1D8C91A4EAB0E0D6
:100340008C930091A4004FE00423A5EAB0E00C9345
:10035000A4EAB0E08C91807F8C93A4EAB0E08C9109
:1003600082BBA5EAB0E08C9180FBA5E3B0E08C9164
:1003700080F98C93A5EAB0E08C9181FBA5E3B0E015
:100380008C9181F98C93A5EAB0E08C9182FBA5E376
:10039000B0E08C9182F98C93A5EAB0E08C9183FB5C
:1003A000A5E3B0E08C9183F98C93AC9AAD9AA2EA64
:1003B000B0E0AD90BB24AEE5B0E0AA0CBB1CAA0D2A
:1003C000BB1D11968C9188BB8F918FBFFF91EF91D0
:1003D000DF91CF91BF91AF919F918F917F916F915D
:1003E0005F914F913F912F911F910F91BF90AF90CF
:1003F0007F905F904F903F902F901F900F90189597
:100400003197F1F70895689462F80895E89462F8D6
:100410000895EF93FF93EE27E82BE92B31F0E0ED01
:10042000F7E03197F1F70197D1F7FF91EF91089538
:10043000A0E9B0E0EDE8F0E027D0339716C0E9E995
:10044000F0E0AAE8B0E002C0ADE0BB27868197816A
:100450003CD00D938381948138D00D93808191811C
:1004600034D00D930895EDE0FF27828123D08AE3F5
:100470008D9381811FD08AE38D9380811BD0882743
:100480008C930895EDE0FF27818114D08DE28D9348
:10049000808110D08DE28D9382810CD088278D933E
:1004A000089504D00D920020E1F70895C895319683
:1004B0000020089500278A3018F08A500395FBCF5A
:1004C000005D0D93805D8D930895805390530027B8
:1004D000813018F0065F8A95FBCF090F0895AF931E
:1004E000BF930F939F938F938FB78F93AAE8B0E03A
:1004F0008C9183958D938C3309F03DC088278E9322
:1005000011968C9183958D938C3309F034C0882794
:100510008E9311968C9183958D93883161F5882700
:100520008E9311968C9183958D939C910EE19430CE
:1005300089F0963079F0993069F09B3059F00CE1F0
:10054000923039F411969C911197937019F4039598
:1005500001C00FE1801778F071F081E08E93119661
:100560008C9183958D938D3031F481E08E9311962B
:100570008C9183958C938F918FBF8F919F910F91C9
:10058000BF91AF911895040F151F261F371F0895AF
:10059000000F111F221F331F0895009510952095FD
:1005A00030950F5F1F4F2F4F3F4F089500271127A2
:1005B000222733271DD08A3328F4803318F005D042
:1005C00015D0F9CF0EF4E9CF089580538F93402FC3
:1005D000512F622F732FDCDFDBDFD5DFD9DF8F9167
:1005E0009927080F191F291F391F08958D91089504
:1005F000E894FCDF8032E9F38B32D9F38930C9F318
:100600008D3211F46894F2CF089588278D93089560
:1006100081918D938823E1F7089509919191992310
:1006200051F08A95D9F73197002329F081918D9364
:100630000A958823C9F7E9CF31323A30303A303061
:020640000000B8
:00000001FF
